:100000000C945D000C9485000C9485000C94850084
:100010000C9485000C9485000C9485000C9485004C
:100020000C9485000C9485000C9485000C9485003C
:100030000C9485000C9485000C9485000C9485002C
:100040000C9480010C9485000C94F0010C94CA016E
:100050000C9485000C9485000C9485000C9485000C
:100060000C9485000C9485000000000024002700FB
:100070002A0000000000250028002B0004040404CE
:100080000404040402020202020203030303030342
:10009000010204081020408001020408102001021F
:1000A00004081020000000080002010000030407FB
:1000B00000000000000000000A0311241FBECFEF63
:1000C000D8E0DEBFCDBF11E0A0E0B1E0E8E8F6E0A7
:1000D00002C005900D92A631B107D9F721E0A6E143
:1000E000B1E001C01D92AC3BB207E1F710E0CDE5F5
:1000F000D0E004C02197FE010E943703CC35D10720
:10010000C9F70E9422020C9442030C940000CF9283
:10011000DF92EF92FF920F931F93CF93DF936C01C7
:100120007A018B01C0E0D0E0CE15DF0589F0D8015F
:100130006D918D01D601ED91FC910190F081E02D42
:10014000C6010995892B11F47E0102C02196ECCFDE
:10015000C701DF91CF911F910F91FF90EF90DF903A
:10016000CF900895FC01918D828D981761F0828D5A
:10017000DF01A80FB11D5D968C91928D9F5F9F73DB
:10018000928F90E008958FEF9FEF0895FC01918D7D
:10019000828D981731F0828DE80FF11D858D90E0EA
:1001A00008958FEF9FEF0895FC01918D228D892F87
:1001B00090E0805C9F4F821B91098F73992708956F
:1001C00086E191E00E94D40021E0892B09F420E02F
:1001D000822F0895FC01848DDF01A80FB11DA35A61
:1001E000BF4F2C91848D90E001968F739927848F57
:1001F000A689B7892C93A089B1898C9180648C934E
:10020000938D848D981306C00288F389E02D808138
:100210008F7D80830895EF92FF920F931F93CF936A
:10022000DF93EC0181E0888F9B8D8C8D981305C046
:10023000E889F989808185FD24C0F62E0B8D10E0B8
:100240000F5F1F4F0F731127E02E8C8DE8120CC02B
:100250000FB607FCFACFE889F989808185FFF5CFD1
:10026000CE010E94EA00F1CF8B8DFE01E80FF11D57
:10027000E35AFF4FF0820B8FEA89FB89808180620D
:1002800007C0EE89FF896083E889F98980818064ED
:10029000808381E090E0DF91CF911F910F91FF90DB
:1002A000EF900895CF93DF93EC01888D8823C9F0F8
:1002B000EA89FB89808185FD05C0A889B9898C916F
:1002C00086FD0FC00FB607FCF5CF808185FFF2CF0A
:1002D000A889B9898C9185FFEDCFCE010E94EA00F3
:1002E000E7CFDF91CF91089580E090E0892B29F04E
:1002F0000E94E00081110C94000008950E943D03CB
:100300001F920F920FB60F9211242F933F938F934A
:100310009F93AF93BF938091B8019091B901A09141
:10032000BA01B091BB013091B70123E0230F2D3703
:1003300020F40196A11DB11D05C026E8230F0296E9
:10034000A11DB11D2093B7018093B8019093B9010D
:10035000A093BA01B093BB018091B3019091B40115
:10036000A091B501B091B6010196A11DB11D809378
:10037000B3019093B401A093B501B093B601BF91BE
:10038000AF919F918F913F912F910F900FBE0F9042
:100390001F9018951F920F920FB60F9211242F9352
:1003A0003F934F935F936F937F938F939F93AF93FD
:1003B000BF93EF93FF9386E191E00E94EA00FF91E3
:1003C000EF91BF91AF919F918F917F916F915F91CD
:1003D0004F913F912F910F900FBE0F901F90189546
:1003E0001F920F920FB60F9211242F938F939F930A
:1003F000EF93FF93E0912601F09127018081E09136
:100400002C01F0912D0182FD12C0908180912F016D
:100410008F5F8F7320913001821751F0E0912F018F
:10042000F0E0EA5EFE4F958F80932F0101C080813E
:10043000FF91EF919F918F912F910F900FBE0F9091
:100440001F901895789484B5826084BD84B58160CE
:1004500084BD85B5826085BD85B5816085BD80918F
:100460006E00816080936E00109281008091810007
:1004700082608093810080918100816080938100FF
:10048000809180008160809380008091B1008460C1
:100490008093B1008091B00081608093B000809122
:1004A0007A00846080937A0080917A0082608093E1
:1004B0007A0080917A00816080937A0080917A003E
:1004C000806880937A001092C100E0912601F0913B
:1004D000270182E08083E0912201F09123011082C4
:1004E000E0912401F09125018FEC808310922E0180
:1004F000E0912A01F0912B0186E08083E0912801B0
:10050000F0912901808180618083E0912801F09140
:100510002901808188608083E0912801F091290180
:10052000808180688083E0912801F0912901808199
:100530008F7D80830DE910E0F8012491C9E8D0E0B7
:10054000FE018491882399F090E0880F991FFC01A7
:10055000E859FF4FA591B4918E589F4FFC014591EA
:1005600054918FB7F8949C91292B2C938FBF42E024
:1005700050E060E171E086E191E00E94870042E096
:1005800050E063E171E086E191E00E948700E1EBD9
:10059000F0E08491F8010491FE01C491CC23B9F1FB
:1005A000882339F1833091F038F48130A9F082301A
:1005B00001F584B58F7D12C0873091F08830A1F0AD
:1005C0008430B9F4809180008F7D03C080918000D9
:1005D0008F77809380000DC084B58F7784BD09C06C
:1005E0008091B0008F7703C08091B0008F7D8093A1
:1005F000B000EC2FF0E0EE0FFF1FEE58FF4FA5917B
:10060000B4918FB7F8949C91092B0C938FBF0E94E3
:100610007401FDCFE6E1F1E01382128288EE93E0EF
:10062000A0E0B0E084839583A683B78384E091E063
:100630009183808385EC90E09587848784EC90E0BB
:100640009787868780EC90E0918B808B81EC90E09F
:10065000938B828B82EC90E0958B848B86EC90E080
:10066000978B868B118E128E138E148E0895EE0F3B
:10067000FF1F0590F491E02D099481E090E0F8943B
:080680000C944203F894FFCF33
:10068800000000000B018700D400B200C600520130
:060698004F4B000D0A00AB
:00000001FF
